:100000000C942A000C9447000C9447000C94470071
:100010000C94301D0C94FD1C0C94CA1C0C94971C61
:100020000C94641C0C94311C0C94FE1B0C94CB1B84
:100030000C9447000C9447000C9447000C94470024
:100040000C9447000C9447000C9447000C94470014
:100050000C94470011241FBECFE5D8E0DEBFCDBF12
:1000600011E0A0E6B0E0E4EBF5E402C005900D92EB
:10007000A633B107D9F711E0A6E3B1E001C01D92A4
:10008000AA34B107E1F70E94A9200C94D8220C945D
:100090000000EF92FF920F931F937B018C0120E0F1
:1000A00030E040E05FE40E94F50388238CF0C80153
:1000B000B70120E030E040E05FE40E94C1010E940F
:1000C00055049B01AC01205030404040504806C0D0
:1000D000C801B7010E9455049B01AC01B901CA01D6
:1000E0001F910F91FF90EF900895A0E0B0E0EBE733
:1000F000F0E00C94A122DC012B01FA019C919230DA
:1001000008F439C1EB018881823008F433C194309E
:1001100069F4843009F02FC111969C91119789815F
:10012000981709F428C1A4EFB0E025C1843009F480
:1001300021C18230A9F4923009F01DC19A01AD01AC
:1001400088E0EA010990AE01E90109929E0181501F
:10015000C1F7E201898111969C918923818308C1AD
:10016000923009F407C112962D903C901397EB0141
:100170008A819B811496AD90BD90CD90DC901797AD
:10018000EC80FD800E811F819101281B390BB90184
:1001900037FF04C066277727621B730B6032710537
:1001A0000CF061C0121613066CF537014801062EDB
:1001B00004C096948794779467940A94D2F721E0C8
:1001C00030E040E050E004C0220F331F441F551FB1
:1001D0006A95D2F721503040404050402E213F21B7
:1001E00040235123211531054105510521F021E01E
:1001F00030E040E050E079018A01E628F72808293C
:1002000019293CC0232BD1F1260E371E350146019A
:10021000062E04C096948794779467940A94D2F734
:1002200021E030E040E050E004C0220F331F441FC3
:10023000551F6A95D2F721503040404050402A2146
:100240003B214C215D21211531054105510521F04E
:1002500021E030E040E050E059016A01A628B728CB
:10026000C828D9280BC0821593052CF01C01AA249C
:10027000BB24650103C0EE24FF24870111969C91E5
:10028000D20111968C91981709F445C0992339F041
:10029000A80197012A193B094C095D0906C0A6016E
:1002A00095012E193F09400B510B57FD08C01182D3
:1002B0003382228224833583468357831DC081E0A5
:1002C00081833382228288279927DC01821B930B4A
:1002D000A40BB50B84839583A683B7830DC0220F2F
:1002E000331F441F551F24833583468357838281E0
:1002F000938101979383828324813581468157813D
:10030000DA01C9010197A109B1098F5F9F4FAF4F72
:10031000BF4328F30BC0918333822282EA0CFB1C7B
:100320000C1D1D1DE482F5820683178383E0808304
:10033000248135814681578157FF1AC0C901AA27F8
:1003400097FDA095BA2F81709070A070B0705695EF
:10035000479537952795822B932BA42BB52B848318
:100360009583A683B7838281938101969383828349
:10037000DF0101C0D201CD01CDB7DEB7E2E10C94BF
:10038000BD22A0E2B0E0E7ECF1E00C94AD2269837D
:100390007A838B839C832D833E834F835887E9E048
:1003A000EE2EF12CEC0EFD1ECE010196B7010E943F
:1003B0007E058E010F5E1F4FCE010596B8010E948B
:1003C0007E058A8991E089278A8BC701B801AE0131
:1003D000475E5F4F0E9475000E94A904A096E6E068
:1003E0000C94C922A0E2B0E0E8EFF1E00C94AD2259
:1003F00069837A838B839C832D833E834F835887C5
:10040000F9E0EF2EF12CEC0EFD1ECE010196B701A6
:100410000E947E058E010F5E1F4FCE010596B8012A
:100420000E947E05C701B801AE01475E5F4F0E9482
:1004300075000E94A904A096E6E00C94C922A0E2EF
:10044000B0E0E5E2F2E00C94A12269837A838B8329
:100450009C832D833E834F835887CE010196BE0136
:10046000675F7F4F0E947E05CE010596BE016F5EDD
:100470007F4F0E947E059985923088F0898982306D
:10048000C8F0943019F4823051F404C0843029F457
:10049000923081F484EF90E0C6C0923049F420E0BD
:1004A0009A858A89981321E02A87CE010996BBC0D4
:1004B000823049F420E09A858A89981321E02A8BBA
:1004C000CE014196B0C02D843E844F8458886D88FB
:1004D0007E888F88988CEE24FF248701AA24BB2471
:1004E000650140E050E060E070E0E0E0F0E0C10174
:1004F00081709070892BE9F0E60CF71C081D191D1E
:100500009A01AB012A0D3B1D4C1D5D1D80E090E062
:10051000A0E0B0E0E614F7040805190520F481E036
:1005200090E0A0E0B0E0BA01A901480F591F6A1F8E
:100530007B1FAA0CBB1CCC1CDD1C97FE08C081E0F5
:1005400090E0A0E0B0E0A82AB92ACA2ADB2A3196B6
:10055000E032F10549F0660C771C881C991C569412
:10056000479437942794C3CFFA85EA892B893C892D
:100570008B859C85280F391F2E5F3F4F17C0CA01FE
:1005800081709070892B61F016950795F794E79428
:1005900080E090E0A0E0B0E8E82AF92A0A2B1B2BC3
:1005A00076956795579547952F5F3F4F77FDE7CF36
:1005B0000CC0440F551F661F771F17FD4160EE0CDE
:1005C000FF1C001F111F21503040403090E05907A0
:1005D00090E0690790E4790760F32B8F3C8FDB0193
:1005E000CA018F779070A070B07080349105A1051A
:1005F000B10561F447FD0AC0E114F10401051105DC
:1006000029F0405C5F4F6F4F7F4F40781A8EFE1786
:1006100011F081E08A8F4D8F5E8F6F8F78A383E01A
:10062000898FCE0149960E94A904A096E2E10C941C
:10063000BD22A8E1B0E0EFE1F3E00C94A9226983C8
:100640007A838B839C832D833E834F835887B9E0C5
:10065000EB2EF12CEC0EFD1ECE010196B7010E948F
:100660007E058E010F5E1F4FCE010596B8010E94D8
:100670007E052985223008F47EC03989323010F495
:10068000B8017CC08A859A8989278A87243011F02D
:10069000223031F4231709F06EC064EF70E06EC0B1
:1006A000343039F41D861E861F86188A1C861B86E8
:1006B00004C0323021F484E08987B7015FC02B8504
:1006C0003C858B899C89281B390B3C872B87ED84C3
:1006D000FE840F851889AD88BE88CF88D88CEA142F
:1006E000FB040C051D0540F4EE0CFF1C001F111F40
:1006F000215030403C872B8720E030E040E050E044
:1007000080E090E0A0E0B0E460E070E0EA14FB0478
:100710000C051D0540F0282B392B4A2B5B2BEA18C2
:10072000FB080C091D09B695A79597958795EE0CC2
:10073000FF1C001F111F6F5F7F4F6F31710531F775
:10074000DA01C9018F779070A070B0708034910584
:10075000A105B10561F427FD0AC0E114F10401050A
:10076000110529F0205C3F4F4F4F5F4F20782D87B8
:100770003E874F87588BBE01675F7F4FCB010E943A
:10078000A9046896EAE00C94C522A8E1B0E0EBEC7D
:10079000F3E00C94AD2269837A838B839C832D8351
:1007A0003E834F83588789E0E82EF12CEC0EFD1E26
:1007B000CE010196B7010E947E058E010F5E1F4F8C
:1007C000CE010596B8010E947E058985823040F0F1
:1007D0008989823028F0C701B8010E94F60501C05E
:1007E0008FEF6896E6E00C94C922A8E1B0E0EBEF49
:1007F000F3E00C94AD2269837A838B839C832D83F1
:100800003E834F83588789E0E82EF12CEC0EFD1EC5
:10081000CE010196B7010E947E058E010F5E1F4F2B
:10082000CE010596B8010E947E058985823040F090
:100830008989823028F0C701B8010E94F60501C0FD
:100840008FEF6896E6E00C94C922A8E1B0E0EBE2F5
:10085000F4E00C94AD2269837A838B839C832D838F
:100860003E834F83588789E0E82EF12CEC0EFD1E65
:10087000CE010196B7010E947E058E010F5E1F4FCB
:10088000CE010596B8010E947E058985823040F030
:100890008989823028F0C701B8010E94F60501C09D
:1008A00081E06896E6E00C94C922ACE0B0E0EBE5AC
:1008B000F4E00C94B12269837A838B839C83CE010C
:1008C0000196BE016B5F7F4F0E947E058D81823055
:1008D00061F1823050F1843021F48E81882351F10E
:1008E0002EC02F81388537FD20C06E812F31310514
:1008F0001CF06623F9F023C08EE190E0821B930B7D
:1009000029853A854B855C8504C056954795379572
:1009100027958A95D2F76623B1F05095409530958A
:1009200021953F4F4F4F5F4F0EC020E030E040E039
:1009300050E009C02FEF3FEF4FEF5FE704C020E02A
:1009400030E040E050E8B901CA012C96E2E00C9496
:10095000CD22DF92EF92FF920F931F93FC01E48070
:10096000F58006811781D1808081823048F480E053
:1009700090E0A0E1B0E0E82AF92A0A2B1B2BA5C0E1
:10098000843009F49FC0823021F4EE24FF248701D3
:1009900005C0E114F1040105110519F4E0E0F0E0EF
:1009A00096C0628173819FEF623879070CF05BC05B
:1009B00022E83FEF261B370B2A3131052CF020E0CF
:1009C00030E040E050E02AC0B801A701022E04C088
:1009D00076956795579547950A94D2F781E090E010
:1009E000A0E0B0E004C0880F991FAA1FBB1F2A9582
:1009F000D2F70197A109B1098E219F21A023B1232C
:100A00000097A105B10521F081E090E0A0E0B0E001
:100A10009A01AB01282B392B4A2B5B2BDA01C90138
:100A20008F779070A070B07080349105A105B105EA
:100A300039F427FF09C0205C3F4F4F4F5F4F04C080
:100A4000215C3F4F4F4F5F4FE0E0F0E02030A0E0EF
:100A50003A07A0E04A07A0E45A0710F0E1E0F0E00E
:100A600079018A0127C06038710564F5FB01E158FE
:100A7000FF4FD801C7018F779070A070B07080349D
:100A80009105A105B10539F4E7FE0DC080E490E0C1
:100A9000A0E0B0E004C08FE390E0A0E0B0E0E80E9A
:100AA000F91E0A1F1B1F17FF05C016950795F7941F
:100AB000E794319687E016950795F794E7948A9521
:100AC000D1F705C0EE24FF248701EFEFF0E06E2F91
:100AD000679566276795902F9F77D794DD24D794E5
:100AE0008E2F8695492F462B582F5D29B701CA01B5
:100AF0001F910F91FF90EF90DF900895FC01DB01B3
:100B0000408151812281622F6F7770E0221F22275E
:100B1000221F9381892F880F822B282F30E0991F65
:100B20009927991F11969C93119721153105A9F5C5
:100B3000411551056105710511F482E037C082E865
:100B40009FEF13969C938E9312979A01AB0167E0E7
:100B5000220F331F441F551F6A95D1F783E08C93F2
:100B60000DC0220F331F441F551F12968D919C916B
:100B70001397019713969C938E931297203080E0E1
:100B8000380780E0480780E4580758F314962D93FF
:100B90003D934D935C93179708952F3F310579F45A
:100BA000411551056105710519F484E08C93089590
:100BB00064FF03C081E08C9312C01C9210C02F57B9
:100BC000304013963C932E93129783E08C9387E0EA
:100BD000440F551F661F771F8A95D1F770641496CE
:100BE0004D935D936D937C93179708951F93DC014C
:100BF000FB019C91923008F447C08081823008F458
:100C000043C0943051F411961C91843099F5818140
:100C1000682F70E0611B71093FC0843021F0923071
:100C200031F48230B9F18181882389F12DC0119688
:100C30001C9111978230F1F081811817D9F4129626
:100C40002D913C911397828193818217930794F0A1
:100C500028173907BCF014968D919D910D90BC9189
:100C6000A02D2481358146815781281739074A07ED
:100C70005B0718F4112341F00AC082179307A407F9
:100C8000B50740F4112319F061E070E005C06FEF83
:100C90007FEF02C060E070E0CB011F910895DF9309
:100CA000CF93CDB7DEB7EAE3F0E08CEE8083E7E3E5
:100CB000F0E08FEF8083E4E3F0E08FE08083E1E316
:100CC000F0E08FEF8083EBE3F0E080E18083E8E306
:100CD000F0E01082E5E3F0E08FEF8083E2E3F0E004
:100CE00080EE8083CF91DF910895DF93CF9300D082
:100CF00000D000D0CDB7DEB78A836B834C831982D6
:100D00008A81843008F0F1C08B81883008F0EAC015
:100D10008A81282F30E03E832D838D819E81813012
:100D2000910509F449C02D813E81223031052CF412
:100D30008D819E81009771F0DAC02D813E81223035
:100D4000310509F46BC08D819E818330910509F4D2
:100D500097C0CDC08C818130A1F4AAE3B0E0EAE372
:100D6000F0E08081482F8B81282F30E081E090E0F7
:100D7000022E02C0880F991F0A94E2F7842B8C93ED
:100D8000B6C08C818823A9F4AAE3B0E0EAE3F0E0DE
:100D90008081482F8B81282F30E081E090E0022E67
:100DA00002C0880F991F0A94E2F7809584238C93E0
:100DB0009EC08DE089839BC08C818130A1F4A7E324
:100DC000B0E0E7E3F0E08081482F8B81282F30E00E
:100DD00081E090E0022E02C0880F991F0A94E2F78A
:100DE000842B8C9384C08C818823A9F4A7E3B0E082
:100DF000E7E3F0E08081482F8B81282F30E081E00D
:100E000090E0022E02C0880F991F0A94E2F78095A5
:100E100084238C936CC08DE0898369C08C81813080
:100E2000A1F4A4E3B0E0E4E3F0E08081482F8B81FB
:100E3000282F30E081E090E0022E02C0880F991F39
:100E40000A94E2F7842B8C9352C08C818823A9F4F6
:100E5000A4E3B0E0E4E3F0E08081482F8B81282F09
:100E600030E081E090E0022E02C0880F991F0A94C2
:100E7000E2F7809584238C933AC08DE0898337C054
:100E80008C818130A1F4A1E3B0E0E1E3F0E0808166
:100E9000482F8B81282F30E081E090E0022E02C0A5
:100EA000880F991F0A94E2F7842B8C9320C08C81C1
:100EB0008823A9F4A1E3B0E0E1E3F0E08081482FCA
:100EC0008B81282F30E081E090E0022E02C0880F55
:100ED000991F0A94E2F7809584238C9308C08DE0D3
:100EE000898305C08AE0898302C08BE08983898178
:100EF00026960FB6F894DEBF0FBECDBFCF91DF911F
:100F00000895DF93CF9300D000D000D0CDB7DEB7E7
:100F10008A836B834C8319828A81843008F0F1C004
:100F20008B81883008F0EAC08A81282F30E03E8328
:100F30002D838D819E818130910509F449C02D81D9
:100F40003E81223031052CF48D819E81009771F015
:100F5000DAC02D813E812230310509F46BC08D81CC
:100F60009E818330910509F497C0CDC08C8181307A
:100F7000A1F4ABE3B0E0EBE3F0E08081482F8B819C
:100F8000282F30E081E090E0022E02C0880F991FE8
:100F90000A94E2F7842B8C93B6C08C818823A9F441
:100FA000ABE3B0E0EBE3F0E08081482F8B81282FAA
:100FB00030E081E090E0022E02C0880F991F0A9471
:100FC000E2F7809584238C939EC08EE089839BC03A
:100FD0008C818130A1F4A8E3B0E0E8E3F0E0808107
:100FE000482F8B81282F30E081E090E0022E02C054
:100FF000880F991F0A94E2F7842B8C9384C08C810C
:101000008823A9F4A8E3B0E0E8E3F0E08081482F6A
:101010008B81282F30E081E090E0022E02C0880F03
:10102000991F0A94E2F7809584238C936CC08EE01C
:10103000898369C08C818130A1F4A5E3B0E0E5E348
:10104000F0E08081482F8B81282F30E081E090E014
:10105000022E02C0880F991F0A94E2F7842B8C930A
:1010600052C08C818823A9F4A5E3B0E0E5E3F0E069
:101070008081482F8B81282F30E081E090E0022E84
:1010800002C0880F991F0A94E2F7809584238C93FD
:101090003AC08EE0898337C08C818130A1F4A2E30D
:1010A000B0E0E2E3F0E08081482F8B81282F30E030
:1010B00081E090E0022E02C0880F991F0A94E2F7A7
:1010C000842B8C9320C08C818823A9F4A2E3B0E008
:1010D000E2E3F0E08081482F8B81282F30E081E02F
:1010E00090E0022E02C0880F991F0A94E2F78095C3
:1010F00084238C9308C08EE0898305C08AE08983AD
:1011000002C08BE08983898126960FB6F894DEBFF2
:101110000FBECDBFCF91DF910895DF93CF93CDB7B1
:10112000DEB727970FB6F894DEBF0FBECDBF8A8318
:101130006B835D834C8319828A81843008F080C080
:101140008B81883008F079C08C819D81009709F4EB
:1011500071C08A81282F30E03F832E834E815F81CA
:101160004130510559F18E819F818230910534F4CF
:101170002E813F812115310569F064C04E815F8168
:101180004230510579F18E819F818330910509F4B8
:101190003DC058C0E9E3F0E08081282F30E08B812A
:1011A000882F90E0A90102C0559547958A95E2F7EE
:1011B000CA018170EC81FD81808344C0E6E3F0E0E8
:1011C0008081282F30E08B81882F90E0A90102C018
:1011D000559547958A95E2F7CA018170EC81FD81AA
:1011E000808330C0E3E3F0E08081282F30E08B8102
:1011F000882F90E0A90102C0559547958A95E2F79E
:10120000CA018170EC81FD8180831CC0E0E3F0E0C5
:101210008081282F30E08B81882F90E0A90102C0C7
:10122000559547958A95E2F7CA018170EC81FD8159
:10123000808308C08CE0898305C08AE0898302C06E
:101240008BE08983898127960FB6F894DEBF0FBEA5
:10125000CDBFCF91DF910895DF93CF9300D000D021
:101260000F92CDB7DEB78A836B8319828A8184306F
:1012700008F076C08B81883008F06FC08A81282FF3
:1012800030E03D832C838C819D818130910549F133
:101290002C813D81223031052CF48C819D81009779
:1012A00061F060C02C813D812230310571F18C816B
:1012B0009D8183309105E9F155C0ABE3B0E0EBE3EC
:1012C000F0E08081482F8B81282F30E081E090E092
:1012D000022E02C0880F991F0A94E2F784278C938C
:1012E00041C0A8E3B0E0E8E3F0E08081482F8B81C3
:1012F000282F30E081E090E0022E02C0880F991F75
:101300000A94E2F784278C932DC0A5E3B0E0E5E3CF
:10131000F0E08081482F8B81282F30E081E090E041
:10132000022E02C0880F991F0A94E2F784278C933B
:1013300019C0A2E3B0E0E2E3F0E08081482F8B81A6
:10134000282F30E081E090E0022E02C0880F991F24
:101350000A94E2F784278C9305C08AE0898302C04F
:101360008BE0898389810F900F900F900F900F90E1
:10137000CF91DF910895DF93CF9300D000D00F92EB
:10138000CDB7DEB78A836B8319828A81843008F0F7
:10139000C5C08B81883008F0BEC08A81282F30E01C
:1013A0003D832C838C819D818130910509F43EC061
:1013B0002C813D81223031052CF48C819D81009758
:1013C00071F0AEC02C813D812230310509F455C049
:1013D0008C819D818330910509F476C0A1C0AAE378
:1013E000B0E0EAE3F0E08081482F8B81282F30E0E5
:1013F00081E090E002C0880F991F2A95E2F780955E
:1014000084238C93ABE3B0E0EBE3F0E08081482FE2
:101410008B81282F30E081E090E0022E02C0880FFF
:10142000991F0A94E2F7842B8C937AC0A7E3B0E06B
:10143000E7E3F0E08081482F8B81282F30E081E0C6
:1014400090E002C0880F991F2A95E2F780958423C7
:101450008C93A8E3B0E0E8E3F0E08081482F8B8133
:10146000282F30E081E090E0022E02C0880F991F03
:101470000A94E2F7842B8C9353C0A4E3B0E0E4E336
:10148000F0E08081482F8B81282F30E081E090E0D0
:1014900002C0880F991F2A95E2F7809584238C93C8
:1014A000A5E3B0E0E5E3F0E08081482F8B81282FB1
:1014B00030E081E090E0022E02C0880F991F0A946C
:1014C000E2F7842B8C932CC0A1E3B0E0E1E3F0E0E1
:1014D0008081482F8B81282F30E081E090E002C08E
:1014E000880F991F2A95E2F7809584238C93A2E3B5
:1014F000B0E0E2E3F0E08081482F8B81282F30E0DC
:1015000081E090E0022E02C0880F991F0A94E2F752
:10151000842B8C9305C08AE0898302C08BE0898389
:1015200089810F900F900F900F900F90CF91DF91C6
:101530000895DF93CF9300D000D00F92CDB7DEB7E0
:101540008A836B8319828A818430E0F58B818823BA
:1015500019F08B818F3F99F58A81282F30E03D83E8
:101560002C838C819D8181309105D1F02C813D812E
:10157000223031052CF48C819D81009761F024C0CC
:101580002C813D812230310581F08C819D81833019
:10159000910581F019C0EAE3F0E08B81808314C0EB
:1015A000E7E3F0E08B8180830FC0E4E3F0E08B8120
:1015B00080830AC0E1E3F0E08B81808305C08FE087
:1015C000898302C08BE0898389810F900F900F90EF
:1015D0000F900F90CF91DF910895DF93CF9300D0BC
:1015E00000D00F92CDB7DEB78A836B8319828A81D0
:1015F000843098F58A81282F30E03D832C838C81BC
:101600009D8181309105D1F02C813D8122303105C1
:101610002CF48C819D81009761F021C02C813D814B
:101620002230310581F08C819D818330910581F0DC
:1016300016C0EBE3F0E08B81808311C0E8E3F0E0BB
:101640008B8180830CC0E5E3F0E08B81808307C051
:10165000E2E3F0E08B81808302C08BE089838981A3
:101660000F900F900F900F900F90CF91DF910895F2
:10167000DF93CF9300D000D000D0CDB7DEB78A8300
:101680007C836B8319828A81843008F042C08B810D
:101690009C810097D9F18A81282F30E03E832D83E9
:1016A0008D819E8181309105E1F02D813E81223036
:1016B00031052CF48D819E81009761F02CC02D8125
:1016C0003E8122303105A1F08D819E8183309105CC
:1016D000B1F021C0E9E3F0E08081EB81FC818083FF
:1016E0001AC0E6E3F0E08081EB81FC81808313C0C7
:1016F000E3E3F0E08081EB81FC8180830CC0E0E3D8
:10170000F0E08081EB81FC81808305C08CE08983DF
:1017100002C08BE08983898126960FB6F894DEBFDC
:101720000FBECDBFCF91DF910895DF93CF9300D04F
:1017300000D0CDB7DEB78A8319828A81843008F061
:101740003FC08A81282F30E03C832B838B819C8192
:1017500081309105E9F02B813C81223031052CF458
:101760008B819C81009761F02DC02B813C812230C0
:101770003105B1F08B819C8183309105C9F022C085
:10178000ABE3B0E0EBE3F0E0808180958C931AC08E
:10179000A8E3B0E0E8E3F0E0808180958C9312C08C
:1017A000A5E3B0E0E5E3F0E0808180958C930AC08A
:1017B000A2E3B0E0E2E3F0E0808180958C9302C088
:1017C0008BE0898389810F900F900F900F90CF91BC
:1017D000DF910895DF93CF9300D000D0CDB7DEB76F
:1017E0008A8319828A81843008F03FC08A81282F39
:1017F00030E03C832B838B819C8181309105E9F023
:101800002B813C81223031052CF48B819C81009707
:1018100061F02DC02B813C8122303105B1F08B81EC
:101820009C8183309105C9F022C0EAE3F0E0108288
:10183000EBE3F0E08FEF80831AC0E7E3F0E0108283
:10184000E8E3F0E08FEF808312C0E4E3F0E0108281
:10185000E5E3F0E08FEF80830AC0E1E3F0E010827F
:10186000E2E3F0E08FEF808302C08BE0898389811F
:101870000F900F900F900F90CF91DF910895DF930D
:10188000CF9300D000D00F92CDB7DEB71B821A8263
:101890007AC08A81882F90E0FC01E85EFE4F2081AB
:1018A0008A81882F90E0FC01EC5EFE4F9081822FB0
:1018B000692F40E00E94810719824BC08981882FDF
:1018C00090E0FC01E05FFE4F40818981882F90E02D
:1018D000FC01E45FFE4F90819E012C5F3F4F842FFF
:1018E000692FA9010E948D088C81882379F589814F
:1018F000482F50E08A81282F30E0CA01880F991FB5
:10190000880F991F820F931FFC01E450FF4F8081C5
:101910008B8316C08981882F90E0FC01E05FFE4F29
:1019200040818981882F90E0FC01E45FFE4F908127
:101930009E012C5F3F4F842F692FA9010E948D08C3
:101940008C81882339F38B818D8323C089818F5FBC
:1019500089838981843008F4B1CF8A81882F90E00F
:10196000FC01E85EFE4F20818A81882F90E0FC0117
:10197000EC5EFE4F9081822F692F41E00E9481072B
:101980008A818F5F8A838A81843008F482CF8B8139
:101990008D838D810F900F900F900F900F90CF91AE
:1019A000DF9108950F931F93DF93CF93CDB7DEB7E9
:1019B000C655D0400FB6F894DEBF0FBECDBFFE01B6
:1019C000ED5AFF4F80E090E0A0E2B2E48083918383
:1019D000A283B3838E01015B1F4FFE01ED5AFF4FBF
:1019E000608171818281938120E030E04AE755E493
:1019F0000E941F02DC01CB01F80180839183A28346
:101A0000B383FE01E15BFF4F60817181828193812D
:101A100020E030E040E85FE30E942504882344F49E
:101A2000FE01E35BFF4F81E090E09183808364C01F
:101A3000FE01E15BFF4F608171818281938120E033
:101A40003FEF4FE757E40E94C50318160CF043C060
:101A5000FE01ED5AFF4F608171818281938120E008
:101A600030E040E251E40E941F02DC01CB018E0114
:101A7000035B1F4FBC01CD010E944900DC01CB017B
:101A8000F801918380831FC0FE01E55BFF4F80E971
:101A900091E091838083FE01E55BFF4F808191811E
:101AA0000197F1F7FE01E55BFF4F91838083DE0133
:101AB000A35BBF4FFE01E35BFF4F808191810197E4
:101AC00011969C938E93FE01E35BFF4F8081918181
:101AD0000097D1F627C08E01035B1F4FFE01E15B2B
:101AE000FF4F60817181828193810E944900DC01F6
:101AF000CB01F80191838083DE01A75BBF4FFE011C
:101B0000E35BFF4F808191818D939C93FE01E75BA6
:101B1000FF4F808191810197F1F7FE01E75BFF4F55
:101B20009183808382E00E94121082E00E94121052
:101B30008CE00E941210FE01EB5BFF4F80E090E012
:101B4000A0E2B2E480839183A283B3838E010F5B12
:101B50001F4FFE01EB5BFF4F60817181828193819A
:101B60002BEA3AEA4AEA50E40E941F02DC01CB0168
:101B7000F80180839183A283B383FE01EF5BFF4F63
:101B8000608171818281938120E030E040E85FE3F1
:101B90000E942504882334F481E0FE01E05CFF4FBD
:101BA00080839DC0FE01EF5BFF4F60817181828168
:101BB000938120E030E04FE753E40E94C5031816FC
:101BC0000CF07EC0FE01EB5BFF4F60817181828172
:101BD000938120E030E04AE754E40E941903DC01DD
:101BE000CB018CAF9DAFAEAFBFAF6CAD7DAD8EAD59
:101BF0009FAD20E030E04AE755E40E941F02DC017F
:101C0000CB0188AF99AFAAAFBBAF68AD79AD8AAD54
:101C10009BAD20E030E040E85FE30E94250488238C
:101C20002CF481E090E09FAB8EAB3FC068AD79AD06
:101C30008AAD9BAD20E03FEF4FE757E40E94C5031C
:101C400018164CF56CAD7DAD8EAD9FAD20E030E04B
:101C500040E251E40E941F02DC01CB01BC01CD0136
:101C60000E944900DC01CB019FAB8EAB0FC080E925
:101C700091E09DAB8CAB8CA99DA90197F1F79DAB31
:101C80008CAB8EA99FA901979FAB8EAB8EA99FA904
:101C9000009769F72DC068AD79AD8AAD9BAD0E9404
:101CA0004900DC01CB019FAB8EAB8EA99FA99BABFA
:101CB0008AAB8AA99BA90197F1F79BAB8AAB18C0A5
:101CC000FE01EF5BFF4F60817181828193810E94F1
:101CD0004900DC01CB01FE01E05CFF4F8083FE0187
:101CE000E05CFF4F808189AB89A98A95F1F789ABC8
:101CF00080E00E9412108EE00E94121080E090E0BE
:101D0000A0E2B2E48DA79EA7AFA7B8AB6DA57EA554
:101D10008FA598A92BEA3AEA4AEA50E40E941F02EA
:101D2000DC01CB0189A79AA7ABA7BCA769A57AA5B7
:101D30008BA59CA520E030E040E85FE30E942504ED
:101D400088231CF481E088A791C069A57AA58BA59A
:101D50009CA520E030E04FE753E40E94C50318162D
:101D60000CF07BC06DA57EA58FA598A920E030E082
:101D70004AE754E40E941903DC01CB018CA39DA324
:101D8000AEA3BFA36CA17DA18EA19FA120E030E0F6
:101D90004AE755E40E941F02DC01CB0188A399A306
:101DA000AAA3BBA368A179A18AA19BA120E030E0EE
:101DB00040E85FE30E94250488232CF481E090E052
:101DC0009F8F8E8F3FC068A179A18AA19BA120E03F
:101DD0003FEF4FE757E40E94C50318164CF56CA17E
:101DE0007DA18EA19FA120E030E040E251E40E945D
:101DF0001F02DC01CB01BC01CD010E944900DC01C6
:101E0000CB019F8F8E8F0FC080E991E09D8F8C8FCB
:101E10008C8D9D8D0197F1F79D8F8C8F8E8D9F8D71
:101E200001979F8F8E8F8E8D9F8D009769F724C0AD
:101E300068A179A18AA19BA10E944900DC01CB0184
:101E40009F8F8E8F8E8D9F8D9B8F8A8F8A8D9B8D7E
:101E50000197F1F79B8F8A8F0FC069A57AA58BA593
:101E60009CA50E944900DC01CB0188A788A5898F29
:101E7000898D8A95F1F7898F80E00E94121081E0A8
:101E80000E94121080E090E0A8ECB4E48D8B9E8B51
:101E9000AF8BB88F6D897E898F89988D2BEA3AEA4E
:101EA0004AEA50E40E941F02DC01CB01898B9A8B25
:101EB000AB8BBC8B69897A898B899C8920E030E067
:101EC00040E85FE30E94250488231CF481E0888BAE
:101ED00091C069897A898B899C8920E030E04FE73D
:101EE00053E40E94C50318160CF07BC06D897E89EF
:101EF0008F89988D20E030E04AE754E40E9419036E
:101F0000DC01CB018C879D87AE87BF876C857D8583
:101F10008E859F8520E030E04AE755E40E941F024D
:101F2000DC01CB0188879987AA87BB87688579857B
:101F30008A859B8520E030E040E85FE30E9425042D
:101F400088232CF481E090E09F838E833FC06885D6
:101F500079858A859B8520E03FEF4FE757E40E9413
:101F6000C50318164CF56C857D858E859F8520E010
:101F700030E040E251E40E941F02DC01CB01BC01D1
:101F8000CD010E944900DC01CB019F838E830FC0ED
:101F900080E991E09D838C838C819D810197F1F78D
:101FA0009D838C838E819F8101979F838E838E81F9
:101FB0009F81009769F724C0688579858A859B850C
:101FC0000E944900DC01CB019F838E838E819F811B
:101FD0009B838A838A819B810197F1F79B838A8304
:101FE0000FC069897A898B899C890E944900DC012C
:101FF000CB01888B8889898389818A95F1F78983C8
:1020000080E00E94121086E00E941210CA5ADF4F30
:102010000FB6F894DEBF0FBECDBFCF91DF911F91F9
:102020000F910895DF93CF93CDB7DEB76D970FB6BD
:10203000F894DEBF0FBECDBF8D8F80E065E040E03D
:102040000E94810780E066E040E00E9481078D8D5C
:10205000982F917081E064E0492F0E9481078D8D57
:102060008695982F917081E065E0492F0E94810745
:102070008D8D86958695982F917081E066E0492F29
:102080000E9481078D8D869586958695982F9170F3
:1020900081E067E0492F0E94810780E067E041E02E
:1020A0000E94810780E090E0A0E0B0E4898F9A8FE1
:1020B000AB8FBC8F698D7A8D8B8D9C8D20E030E04D
:1020C0004AE755E40E941F02DC01CB018D8B9E8BF9
:1020D000AF8BB88F6D897E898F89988D20E030E035
:1020E00040E85FE30E94250488232CF481E090E01F
:1020F0009C8B8B8B3FC06D897E898F89988D20E06A
:102100003FEF4FE757E40E94C50318164CF5698D61
:102110007A8D8B8D9C8D20E030E040E251E40E946E
:102120001F02DC01CB01BC01CD010E944900DC0192
:10213000CB019C8B8B8B0FC080E991E09A8B898BB4
:1021400089899A890197F1F79A8B898B8B899C8968
:1021500001979C8B8B8B8B899C89009769F714C0A6
:102160006D897E898F89988D0E944900DC01CB01A1
:102170009C8B8B8B8B899C89988B8F878F8598897B
:102180000197F1F7988B8F8780E067E040E00E942D
:10219000810780E090E0A0E2B1E48B879C87AD8767
:1021A000BE876B857C858D859E8520E030E04AE783
:1021B00055E40E941F02DC01CB018F839887A98719
:1021C000BA876F81788589859A8520E030E040E87C
:1021D0005FE30E94250488232CF481E090E09E8335
:1021E0008D833FC06F81788589859A8520E03FEF98
:1021F0004FE757E40E94C50318164CF56B857C85A4
:102200008D859E8520E030E040E251E40E941F026F
:10221000DC01CB01BC01CD010E944900DC01CB01F6
:102220009E838D830FC080E991E09C838B838B819B
:102230009C810197F1F79C838B838D819E8101970F
:102240009E838D838D819E81009769F714C06F8175
:10225000788589859A850E944900DC01CB019E839F
:102260008D838D819E819A83898389819A8101974B
:10227000F1F79A8389836D960FB6F894DEBF0FBE8F
:10228000CDBFCF91DF910895DF93CF93CDB7DEB768
:1022900080E00E94121081E00E94121088E00E94EB
:1022A000121080E80E941210CF91DF910895DF9301
:1022B000CF93CDB7DEB7E9970FB6F894DEBF0FBE68
:1022C000CDBF89AF80E065E041E00E94810780E0FA
:1022D00066E040E00E94810789AD82958F70982F5B
:1022E000917081E064E0492F0E94810789AD829559
:1022F00086958770982F917081E065E0492F0E9444
:10230000810789AD8295869586958370982F917007
:1023100081E066E0492F0E94810789AD982F991FBF
:102320009927991F81E067E0492F0E94810780E08B
:1023300067E041E00E94810780E090E0A0E0B0E427
:102340008DAB9EABAFABB8AF6DA97EA98FA998AD91
:1023500020E030E04AE755E40E941F02DC01CB0197
:1023600089AB9AABABABBCAB69A97AA98BA99CA989
:1023700020E030E040E85FE30E94250488232CF44D
:1023800081E090E098AB8FA73FC069A97AA98BA99B
:102390009CA920E03FEF4FE757E40E94C5031816C1
:1023A0004CF56DA97EA98FA998AD20E030E040E200
:1023B00051E40E941F02DC01CB01BC01CD010E944F
:1023C0004900DC01CB0198AB8FA70FC080E991E0F9
:1023D0009EA78DA78DA59EA50197F1F79EA78DA716
:1023E0008FA598A9019798AB8FA78FA598A900975B
:1023F00069F714C069A97AA98BA99CA90E94490010
:10240000DC01CB0198AB8FA78FA598A99CA78BA7C0
:102410008BA59CA50197F1F79CA78BA780E067E0AF
:1024200040E00E94810780E090E0A0E0B0E48FA34C
:1024300098A7A9A7BAA76FA178A589A59AA520E012
:1024400030E04AE755E40E941F02DC01CB018BA378
:102450009CA3ADA3BEA36BA17CA18DA19EA120E0F6
:1024600030E040E85FE30E94250488232CF481E0FB
:1024700090E09AA389A33FC06BA17CA18DA19EA1EE
:1024800020E03FEF4FE757E40E94C50318164CF5D4
:102490006FA178A589A59AA520E030E040E251E43B
:1024A0000E941F02DC01CB01BC01CD010E9449004A
:1024B000DC01CB019AA389A30FC080E991E098A326
:1024C0008F8F8F8D98A10197F1F798A38F8F89A196
:1024D0009AA101979AA389A389A19AA1009769F764
:1024E00014C06BA17CA18DA19EA10E944900DC01BA
:1024F000CB019AA389A389A19AA19E8F8D8F8D8DDF
:102500009E8D0197F1F79E8F8D8F89AD982F9170D9
:1025100081E064E0492F0E94810789AD8695982F5C
:10252000917081E065E0492F0E94810789AD869511
:102530008695982F917081E066E0492F0E9481076F
:1025400089AD869586958695982F917081E067E094
:10255000492F0E94810780E067E041E00E948107E7
:1025600080E090E0A0E0B0E4898F9A8FAB8FBC8FC1
:10257000698D7A8D8B8D9C8D20E030E04AE755E4A3
:102580000E941F02DC01CB018D8B9E8BAF8BB88F1D
:102590006D897E898F89988D20E030E040E85FE387
:1025A0000E94250488232CF481E090E09C8B8B8B87
:1025B0003FC06D897E898F89988D20E03FEF4FE77E
:1025C00057E40E94C50318164CF5698D7A8D8B8DE2
:1025D0009C8D20E030E040E251E40E941F02DC01CB
:1025E000CB01BC01CD010E944900DC01CB019C8BD9
:1025F0008B8B0FC080E991E09A8B898B89899A89AE
:102600000197F1F79A8B898B8B899C8901979C8B19
:102610008B8B8B899C89009769F714C06D897E89A3
:102620008F89988D0E944900DC01CB019C8B8B8B9C
:102630008B899C89988B8F878F8598890197F1F773
:10264000988B8F8780E067E040E00E94810780E000
:1026500090E0A0E0B0E48B879C87AD87BE876B8558
:102660007C858D859E8520E030E04AE755E40E9418
:102670001F02DC01CB018F839887A987BA876F81FE
:10268000788589859A8520E030E040E85FE30E9404
:10269000250488232CF481E090E09E838D833FC045
:1026A0006F81788589859A8520E03FEF4FE757E471
:1026B0000E94C50318164CF56B857C858D859E851B
:1026C00020E030E040E251E40E941F02DC01CB0137
:1026D000BC01CD010E944900DC01CB019E838D83AA
:1026E0000FC080E991E09C838B838B819C81019753
:1026F000F1F79C838B838D819E8101979E838D83CF
:102700008D819E81009769F714C06F8178858985D6
:102710009A850E944900DC01CB019E838D838D81C7
:102720009E819A83898389819A810197F1F79A839F
:102730008983E9960FB6F894DEBF0FBECDBFCF9167
:10274000DF910895DF93CF9300D000D0CDB7DEB7EF
:102750009C838B831A8219828B819C810097D9F08C
:102760000EC08A81282F30E08B819C81FC01E20F12
:10277000F31F80810E9457118A818F5F8A838A812B
:10278000282F30E08B819C81FC01E20FF31F8081B8
:10279000882339F702C08DE0898389810F900F90DB
:1027A0000F900F90CF91DF910895DF93CF9300D0DA
:1027B00000D00F92CDB7DEB79C838B836D831A82D6
:1027C00019828B819C810097D1F18D818830A0F591
:1027D0008D81882F90E00896880F991F880F991F88
:1027E000880F991F959587959595879595958795C8
:1027F000959587950E9412108D81882F90E00896FC
:10280000880F991F880F991F880F991F0E94121017
:102810001A820EC08A81282F30E08B819C81FC01B6
:10282000E20FF31F80810E9457118A818F5F8A8394
:102830008A818B3078F305C08CE0898302C08DE0FB
:10284000898389810F900F900F900F900F90CF91F7
:10285000DF910895DF93CF9300D000D0CDB7DEB7DE
:102860008A836B834C8319828A818830A0F48B81A0
:10287000843070F48C81843140F48B816C810E94AF
:1028800055148A810E94571108C08BE0898305C0C6
:102890008AE0898302C08CE0898389810F900F9040
:1028A0000F900F90CF91DF910895DF93CF9300D0D9
:1028B00000D00F92CDB7DEB78C836D831B821A8256
:1028C00019828C81843060F58D81843130F58C8162
:1028D000882319F48D818B8314C08C81813021F47D
:1028E0008D81805C8B830DC08C81823021F48D8141
:1028F0008C5E8B8306C08C81833019F48D818C5A59
:102900008B838B8180688A838A8182958F700E94F5
:1029100012108A810E94121005C08BE0898302C0C8
:102920008AE0898389810F900F900F900F900F900C
:10293000CF91DF910895DF93CF93CDB7DEB72E9778
:102940000FB6F894DEBF0FBECDBF6B877C878D8737
:102950009E878AE0FE013196DF01982F1D929A959D
:10296000E9F72B853C854D855E85CE010196BA0140
:10297000A9010E94671ECE0101960E94A2132E9605
:102980000FB6F894DEBF0FBECDBFCF91DF91089593
:10299000DF93CF9300D00F92CDB7DEB78A836B83DE
:1029A00019828A81843060F48B81883030F48A8186
:1029B0006B8141E00E94810705C08AE0898302C0E3
:1029C0008BE0898389810F900F900F90CF91DF91D9
:1029D0000895DF93CF9300D00F92CDB7DEB78A83EF
:1029E0006B8319828A81843060F48B81883030F463
:1029F0008A816B8140E00E94810705C08AE089835B
:102A000002C08BE0898389810F900F900F90CF9146
:102A1000DF910895DF93CF9300D00F92CDB7DEB74B
:102A20008A836B8319828A81843058F48B81883041
:102A300028F48A816B810E942C0905C08AE0898371
:102A400002C08BE0898389810F900F900F90CF9106
:102A5000DF910895AF92BF92CF92DF92EF92FF92F3
:102A60000F931F93DF93CF9300D000D0CDB7DEB785
:102A70008B836C831A8219828C81853BF0F58C8163
:102A8000882F90E0A0E0B0E000D000D0EDB7FEB716
:102A9000319680839183A283B38360E070E080E00D
:102AA00090E024EB30E040E050E00F2EF2E3EF2E18
:102AB000F0E0FF2EF0E00F2FF0E01F2FF02D0F2E93
:102AC000F4E6AF2EF0E0BF2EF0E0CF2EF0E0DF2EE8
:102AD000F02D0E94921D0F900F900F900F90DC012F
:102AE000CB0189838981282F30E08B8142E350E03C
:102AF00060E070E00E94F31702C08AE08A838A8156
:102B00000F900F900F900F90CF91DF911F910F9129
:102B1000FF90EF90DF90CF90BF90AF900895DF933C
:102B2000CF93CDB7DEB70E94141ACF91DF910895ED
:102B3000DF93CF93CDB7DEB7A3E5B0E0E3E5F0E0F8
:102B4000808188648C93A3E5B0E0E3E5F0E08081C8
:102B500080628C93A3E5B0E0E3E5F0E080818F77BD
:102B60008C93E2E5F0E01082ECE5F0E01082A9E55C
:102B7000B0E0E9E5F0E080818C93A3E5B0E0E3E527
:102B8000F0E08081887F8C93A3E5B0E0E3E5F0E09E
:102B9000808183608C93CF91DF910895DF93CF93F1
:102BA0000F92CDB7DEB78983E2E5F0E089818083BB
:102BB0000F90CF91DF910895DF93CF930F92CDB710
:102BC000DEB78983ECE5F0E0898180830F90CF91B7
:102BD000DF910895DF93CF9300D0CDB7DEB78A831E
:102BE00019828A81882319F08A818130A1F4A9E5AC
:102BF000B0E0E9E5F0E08081482F8A81282F30E0BD
:102C000081E090E0022E02C0880F991F0A94E2F73B
:102C1000842B8C9302C08AE0898389810F900F9066
:102C2000CF91DF910895DF93CF9300D0CDB7DEB77A
:102C30008A8319828A81882319F08A818130A9F4D4
:102C4000A9E5B0E0E9E5F0E08081482F8A81282FEE
:102C500030E081E090E0022E02C0880F991F0A94B4
:102C6000E2F7809584238C9302C08AE0898389816E
:102C70000F900F90CF91DF910895DF93CF93CDB751
:102C8000DEB7A3E5B0E0E3E5F0E0808180688C93F7
:102C9000CF91DF9108950F931F93DF93CF93CDB71B
:102CA000DEB727970FB6F894DEBF0FBECDBF6A839D
:102CB0007B838C839D835F834E8319828E819F816A
:102CC00023E0893E920708F0EDC020911C0130916D
:102CD0001D0140911E0150911F018A819B81AC8191
:102CE000BD81281739074A075B0708F4D8C0A3E558
:102CF000B0E0E3E5F0E08081887F8C93A3E5B0E06D
:102D0000E3E5F0E080818C93A3E5B0E0E3E5F0E05B
:102D1000808188648C93A3E5B0E0E3E5F0E08081F6
:102D200080628C93E2E5F0E010820CE510E08E8189
:102D30009F810196CC01A0E0B0E02FEF30E040E0B1
:102D400050E0BC01CD010E944522DC01CB0128EE00
:102D500033E040E050E0BC01CD010E946422DA0182
:102D6000C901F8018083A3E5B0E0E3E5F0E08081EC
:102D7000887F8C9380912C0190912D01A0912E0140
:102D8000B0912F019C01AD012F5F3F4F4F4F5F4F1F
:102D90008A819B81AC81BD8182179307A407B50707
:102DA00040F4A3E5B0E0E3E5F0E0808185608C933A
:102DB0007BC08091280190912901A0912A01B091B6
:102DC0002B019C01AD012F5F3F4F4F4F5F4F8A8119
:102DD0009B81AC81BD8182179307A407B50740F49E
:102DE000A3E5B0E0E3E5F0E0808184608C935CC013
:102DF0008091240190912501A0912601B091270195
:102E00009C01AD012F5F3F4F4F4F5F4F8A819B81E8
:102E1000AC81BD8182179307A407B50740F4A3E5F1
:102E2000B0E0E3E5F0E0808183608C933DC0809169
:102E3000200190912101A0912201B09123019C01D8
:102E4000AD012F5F3F4F4F4F5F4F8A819B81AC8118
:102E5000BD8182179307A407B50740F4A3E5B0E04E
:102E6000E3E5F0E0808182608C931EC020911C011C
:102E700030911D0140911E0150911F018A819B815B
:102E8000AC81BD8182179307A407B50768F4A3E559
:102E9000B0E0E3E5F0E0808181608C9305C08FE0D5
:102EA000898302C08EE08983898127960FB6F894C2
:102EB000DEBF0FBECDBFCF91DF911F910F9108955F
:102EC000DF93CF93CDB7DEB7A3E5B0E0E3E5F0E065
:102ED00080818C7F8C93A3E5B0E0E3E5F0E0808116
:102EE0008C93CF91DF910895DF93CF93CDB7DEB769
:102EF000AFE4B0E0EFE4F0E0808182608C93AEE478
:102F0000B0E0EEE4F0E0808188618C93AFE4B0E063
:102F1000EFE4F0E0808180688C93AFE4B0E0EFE410
:102F2000F0E0808180628C93ECE4F0E0118210820A
:102F3000EAE4F0E011821082E8E4F0E0118210820D
:102F4000E6E4F0E088E893E191838083A9E5B0E0CE
:102F5000E9E5F0E080818C93AEE4B0E0EEE4F0E0EF
:102F60008081887F8C93AEE4B0E0EEE4F0E0808175
:102F700083608C93CF91DF910895DF93CF9300D03E
:102F8000CDB7DEB79A838983ECE4F0E089819A813A
:102F9000918380830F900F90CF91DF910895DF93FD
:102FA000CF9300D0CDB7DEB79A838983EAE4F0E00F
:102FB00089819A81918380830F900F90CF91DF91C7
:102FC0000895DF93CF9300D0CDB7DEB79A8389837E
:102FD000E8E4F0E089819A81918380830F900F90DB
:102FE000CF91DF910895CF92DF92EF92FF920F93EE
:102FF0001F93DF93CF93CDB7DEB72E970FB6F8941C
:10300000DEBF0FBECDBF888749875A876B877C8715
:103010003E872D871F821E821D8219821A821B8283
:103020001C828885882321F08885813009F0EAC1D7
:103030008D859E8523E0893E920708F0E0C1AEE4CD
:10304000B0E0EEE4F0E08081887F8C93AEE4B0E005
:10305000EEE4F0E080818C93AFE4B0E0EFE4F0E0E8
:10306000808182608C93AEE4B0E0EEE4F0E0808199
:1030700088618C938885882341F4AFE4B0E0EFE465
:10308000F0E0808180688C930AC08885813039F4B3
:10309000AFE4B0E0EFE4F0E0808180628C932091B7
:1030A00030013091310140913201509133018985D5
:1030B0009A85AB85BC85281739074A075B0708F452
:1030C00003C180E094E2A4EFB0E029853A854B8506
:1030D0005C85BC01CD010E946422DA01C90101971F
:1030E000A109B10989839A83AB83BC8389819A81C1
:1030F000AB81BC818030E0E09E07E1E0AE07E0E01C
:10310000BE0708F4D6C089859A85AB85BC85880F33
:10311000991FAA1FBB1F880F991FAA1FBB1F880FCB
:10312000991FAA1FBB1F9C01AD0180E094E2A4EF90
:10313000B0E0BC01CD010E946422DA01C90101970F
:10314000A109B10989839A83AB83BC8389819A8160
:10315000AB81BC818030F0E09F07F1E0AF07F0E089
:10316000BF0708F49BC089859A85AB85BC85880F0D
:10317000991FAA1FBB1F880F991FAA1FBB1F880F6B
:10318000991FAA1FBB1F880F991FAA1FBB1F880F5B
:10319000991FAA1FBB1F880F991FAA1FBB1F9C0145
:1031A000AD0180E094E2A4EFB0E0BC01CD010E944B
:1031B0006422DA01C9010197A109B10989839A83BF
:1031C000AB83BC8389819A81AB81BC81803020E054
:1031D000920721E0A20720E0B20708F454C08985D5
:1031E0009A85AB85BC852227382F492F5A2F80E03E
:1031F00094E2A4EFB0E0BC01CD010E946422DA01A8
:10320000C9010197A109B10989839A83AB83BC8362
:1032100089819A81AB81BC818030E0E09E07E1E04A
:10322000AE07E0E0BE0720F180E094E09E838D834E
:1032300006E410E089859A85AB85BC859C01AD01CB
:10324000012E1AE0220F331F441F551F1A95D1F784
:10325000102D80E094E2A4EFB0E0BC01CD010E940B
:103260006422DA01C9010197F801918380832EC09D
:1032700080E091E09E838D83E6E4F0E089819A818D
:103280009183808323C080E490E09E838D83E6E475
:10329000F0E089819A819183808318C088E090E072
:1032A0009E838D83E6E4F0E089819A819183808317
:1032B0000DC081E090E09E838D83E6E4F0E089819B
:1032C0009A819183808302C08FE08F8388858823D1
:1032D00029F50F2EFAE4CF2EDD24F02DE6E4F0E000
:1032E000808191817C0100E010E08D859E859C01AC
:1032F00040E050E0C801B7010E944522DC01CB014B
:1033000028EE33E040E050E0BC01CD010E94642291
:10331000DA01C901F6019183808327C08885813055
:1033200021F50F2EF8E4CF2EDD24F02DE6E4F0E0B9
:10333000808191817C0100E010E08D859E859C015B
:1033400040E050E0C801B7010E944522DC01CB01FA
:1033500028EE33E040E050E0BC01CD010E94642241
:10336000DA01C901F60191838083AEE4B0E0EEE4B6
:10337000F0E08081887F8C938D819E81F4E08030A5
:103380009F0741F4AEE4B0E0EEE4F0E080818560B8
:103390008C933AC08D819E8121E08030920741F468
:1033A000AEE4B0E0EEE4F0E0808184608C932CC069
:1033B0008D819E818034910541F4AEE4B0E0EEE46D
:1033C000F0E0808183608C931FC08D819E81883066
:1033D000910541F4AEE4B0E0EEE4F0E0808182607B
:1033E0008C9312C08D819E818130910569F4AEE489
:1033F000B0E0EEE4F0E0808181608C9305C08EE067
:103400008F8302C080E18F838F812E960FB6F89450
:10341000DEBF0FBECDBFCF91DF911F910F91FF9007
:10342000EF90DF90CF900895DF93CF93CDB7DEB7C5
:10343000AEE4B0E0EEE4F0E08081887F8C93AEE40F
:10344000B0E0EEE4F0E080818C93CF91DF910895BD
:10345000DF93CF93CDB7DEB7A5E4B0E0E5E4F0E0CD
:1034600080818C93A5E4B0E0E5E4F0E080818063A6
:103470008C93E4E4F0E01082E3E4F0E08AEF8083F0
:10348000A9E5B0E0E9E5F0E080818C93A5E4B0E047
:10349000E5E4F0E08081887F8C93A5E4B0E0E5E48A
:1034A000F0E0808184608C93CF91DF910895DF9369
:1034B000CF930F92CDB7DEB78983E4E4F0E0898142
:1034C00080830F90CF91DF910895DF93CF930F9278
:1034D000CDB7DEB78983E3E4F0E0898180830F9084
:1034E000CF91DF910895DF93CF93CDB7DEB7A5E4F9
:1034F000B0E0E5E4F0E0808180688C93CF91DF91CB
:103500000895EF92FF920F931F93DF93CF93CDB760
:10351000DEB729970FB6F894DEBF0FBECDBF9F83ED
:103520008E83798768871D8219821A821B821C828A
:1035300088859985009709F49EC080913401823076
:1035400009F096C083E080933401A5E4B0E0E5E49F
:10355000F0E08081887F8C93A5E4B0E0E5E4F0E0C2
:1035600080818C9388859985909349018093480147
:10357000A5E4B0E0E5E4F0E0808188608C93A5E408
:10358000B0E0E5E4F0E080818C93E4E4F0E01082C8
:103590008E819F819093390180933801A5E4B0E03A
:1035A000E5E4F0E08081887F8C9384EF91E0A0E0F7
:1035B000B0E089839A83AB83BC8389819A81AB8194
:1035C000BC818F3F9105A105B10509F008F43DC00C
:1035D00012C089819A81AB81BC812FEF30E040E03D
:1035E00050E0BC01CD010E946422DA01C901898347
:1035F0009A83AB83BC8389819A81AB81BC818F3FE5
:103600009105A105B10509F020F78091380190914D
:1036100039017C0100E010E089819A81AB81BC8195
:103620009C01AD012F5F3F4F4F4F5F4FC801B70166
:103630000E944522DC01CB0190933901809338012F
:10364000E3E4F0E08FEF808304C0E3E4F0E08981FD
:103650008083A9E5B0E0E9E5F0E0808180688C93A3
:10366000A5E4B0E0E5E4F0E0808183608C9305C0E0
:103670008CE08D8302C08BE08D838D8129960FB6FF
:10368000F894DEBF0FBECDBFCF91DF911F910F9198
:10369000FF90EF900895DF93CF93CDB7DEB7A5E409
:1036A000B0E0E5E4F0E080818C7F8C93A5E4B0E0AD
:1036B000E5E4F0E080818C93CF91DF910895DF9372
:1036C000CF9300D0CDB7DEB78A831982A9E5B0E0E9
:1036D000E9E5F0E08081482F8A81282F30E081E001
:1036E00090E0022E02C0880F991F0A94E2F7842B03
:1036F0008C9389810F900F90CF91DF910895DF9384
:10370000CF9300D0CDB7DEB78A831982A9E5B0E0A8
:10371000E9E5F0E08081482F8A81282F30E081E0C0
:1037200090E0022E02C0880F991F0A94E2F780955C
:1037300084238C9389810F900F90CF91DF9108950E
:10374000DF93CF9300D000D0CDB7DEB78A837C83E0
:103750006B8319828A818830A0F48B819C810097C9
:1037600069F08A81882F90E0880F991FFC01E65C40
:10377000FE4F8B819C819183808305C08BE0898380
:1037800002C08AE0898389810F900F900F900F907B
:10379000CF91DF9108951F920F920FB60F921124CF
:1037A0002F933F934F935F936F937F938F939F9349
:1037B000AF93BF93EF93FF93DF93CF93CDB7DEB774
:1037C00080913A0190913B01009729F0E0913A01F4
:1037D000F0913B010995CF91DF91FF91EF91BF915E
:1037E000AF919F918F917F916F915F914F913F9199
:1037F0002F910F900FBE0F901F9018951F920F9250
:103800000FB60F9211242F933F934F935F936F93B3
:103810007F938F939F93AF93BF93EF93FF93DF9328
:10382000CF93CDB7DEB780913C0190913D010097D9
:1038300029F0E0913C01F0913D010995CF91DF9194
:10384000FF91EF91BF91AF919F918F917F916F9178
:103850005F914F913F912F910F900FBE0F901F904E
:1038600018951F920F920FB60F9211242F933F932A
:103870004F935F936F937F938F939F93AF93BF9378
:10388000EF93FF93DF93CF93CDB7DEB780913E01E7
:1038900090913F01009729F0E0913E01F0913F01A6
:1038A0000995CF91DF91FF91EF91BF91AF919F91DA
:1038B0008F917F916F915F914F913F912F910F90D9
:1038C0000FBE0F901F9018951F920F920FB60F9278
:1038D00011242F933F934F935F936F937F938F9315
:1038E0009F93AF93BF93EF93FF93DF93CF93CDB7A6
:1038F000DEB78091400190914101009729F0E0915D
:103900004001F09141010995CF91DF91FF91EF9135
:10391000BF91AF919F918F917F916F915F914F91E7
:103920003F912F910F900FBE0F901F9018951F92EF
:103930000F920FB60F9211242F933F934F935F93E3
:103940006F937F938F939F93AF93BF93EF93FF9367
:10395000DF93CF93CDB7DEB78091420190914301C1
:10396000009729F0E0914201F09143010995CF9130
:10397000DF91FF91EF91BF91AF919F918F917F91D7
:103980006F915F914F913F912F910F900FBE0F90CC
:103990001F9018951F920F920FB60F9211242F931C
:1039A0003F934F935F936F937F938F939F93AF93C7
:1039B000BF93EF93FF93DF93CF93CDB7DEB78091A3
:1039C000440190914501009729F0E0914401F09164
:1039D00045010995CF91DF91FF91EF91BF91AF9193
:1039E0009F918F917F916F915F914F913F912F9117
:1039F0000F900FBE0F901F9018951F920F920FB649
:103A00000F9211242F933F934F935F936F937F9364
:103A10008F939F93AF93BF93EF93FF93DF93CF93D6
:103A2000CDB7DEB78091460190914701009729F00C
:103A3000E0914601F09147010995CF91DF91FF9107
:103A4000EF91BF91AF919F918F917F916F915F9116
:103A50004F913F912F910F900FBE0F901F9018958F
:103A60001F920F920FB60F9211242F933F934F93F3
:103A70005F936F937F938F939F93AF93BF93EF93D6
:103A8000FF93DF93CF93CDB7DEB78091360190914E
:103A900037010196909337018093360120913601CA
:103AA00030913701809138019091390128173907F9
:103AB00031F58091480190914901009729F0E091FA
:103AC0004801F09149010995109237011092360191
:103AD00082E080933401A9E5B0E0E9E5F0E080817F
:103AE0008F778C93A5E4B0E0E5E4F0E080818C7FF3
:103AF0008C93A5E4B0E0E5E4F0E080818C93CF9175
:103B0000DF91FF91EF91BF91AF919F918F917F9145
:103B10006F915F914F913F912F910F900FBE0F903A
:103B20001F901895AF92BF92CF92DF92EF92FF92C3
:103B30000F931F93DF93CF93CDB7DEB7A4970FB644
:103B4000F894DEBF0FBECDBF698B7A8B8B8B9C8BBD
:103B50002D8B3E8B4F8B588FE98EFA8E0B8F1C8FDF
:103B6000AD8EBE8ECF8ED8A22D8D3E8D4F8D58A19D
:103B7000898D9A8DAB8DBC8D79018A01E81AF90A7D
:103B80000A0B1B0BD801C7018D879E87AF87B88BA7
:103B90002D893E894F89588D89899A89AB89BC893D
:103BA00079018A01E81AF90A0A0B1B0BD801C7012F
:103BB00089879A87AB87BC8729A93AA94BA95CA9B1
:103BC00089899A89AB89BC8979018A01E81AF90A3D
:103BD0000A0B1B0BD801C7018D839E83AF83B88767
:103BE0008D859E85AF85B8892D813E814F81588511
:103BF000BC01CD010E944522DC01CB0129853A851B
:103C00004B855C85BC01CD010E948622DA01C90189
:103C100089839A83AB83BC8329813A814B815C8100
:103C2000898D9A8DAB8DBC8D820F931FA41FB51FFC
:103C300089839A83AB83BC8329813A814B815C81E0
:103C4000898D9A8DAB8DBC8D82179307A407B5071C
:103C50004CF0898D9A8DAB8DBC8D89A39AA3ABA3B3
:103C6000BCA31EC029813A814B815C818D8D9E8DC4
:103C7000AF8DB8A1281739074A075B074CF0ED8CC8
:103C8000FE8C0F8D18A1E9A2FAA20BA31CA308C0F9
:103C900089819A81AB81BC8189A39AA3ABA3BCA380
:103CA00089A19AA1ABA1BCA1BC01CD01A4960FB67C
:103CB000F894DEBF0FBECDBFCF91DF911F910F9162
:103CC000FF90EF90DF90CF90BF90AF900895DF937B
:103CD000CF93CDB7DEB767970FB6F894DEBF0FBEB0
:103CE000CDBF9B8B8A8B4C8B5D8B6E8B7F8B1E86A7
:103CF0001F86188A198A1A861B861C861D861E82B4
:103D00001F82188619861A821B821C821D828C894A
:103D10009D89AE89BF890097A105B105C1F4EA89E3
:103D2000FB8980E380838A859B85AC85BD85019670
:103D3000A11DB11D8A879B87AC87BD872A853B85DE
:103D40008A899B89FC01E20FF31F1082B2C08C8923
:103D50009D89AE89BF898A839B83AC83BD838A8119
:103D60009B81AC81BD81BB23D4F48A859B85AC85C6
:103D7000BD850196A11DB11D8A879B87AC87BD8734
:103D80008C899D89AE89BF89B095A09590958195C4
:103D90009F4FAF4FBF4F8C8B9D8BAE8BBF8B8C8952
:103DA0009D89AE89BF898E879F87A88BB98B1DC0DF
:103DB0008E859F85A889B9892AE030E040E050E0EF
:103DC000BC01CD010E948622DA01C9018E879F873E
:103DD000A88BB98B8A859B85AC85BD850196A11D75
:103DE000B11D8A879B87AC87BD878E859F85A889F3
:103DF000B989181619061A061B06D4F2198238C09A
:103E00008C899D89AE89BF892AE030E040E050E08E
:103E1000BC01CD010E948622DC01CB018E839F83F1
:103E2000A887B9878C899D89AE89BF892AE030E04F
:103E300040E050E0BC01CD010E948622DA01C901B8
:103E40008C8B9D8BAE8BBF8B2A853B858981882F80
:103E500090E080959095280F391F8A899B89FC01F5
:103E6000E20FF31F8E81805D808389818F5F89835C
:103E70008981282F30E040E050E08A859B85AC8521
:103E8000BD85281739074A075B070CF4B9CF8A812B
:103E90009B81AC81BD81BB2324F4EA89FB898DE23F
:103EA00080838A859B852A893B89F901E80FF91F60
:103EB000108267960FB6F894DEBF0FBECDBFCF91CC
:103EC000DF910895DF93CF93CDB7DEB728970FB674
:103ED000F894DEBF0FBECDBF98878F831B821C82F4
:103EE0001D821E8281E08A831982EF81F88580819C
:103EF0008D3209F052C08FEF8A8381E089834DC0F3
:103F00008981282F332727FD30958F819885FC01E3
:103F1000E20FF31F8081882F90E0C09799230CF463
:103F20004AC08981282F332727FD30958F819885B6
:103F3000FC01E20FF31F8081882F90E0C0978A3048
:103F40009105CCF58B819C81AD81BE812AE030E06A
:103F500040E050E0BC01CD010E944522AB01BC0114
:103F60008981282F332727FD30958F819885FC0183
:103F7000E20FF31F8081882F90E0C097AA2797FD5A
:103F8000A095BA2F840F951FA61FB71F8B839C8304
:103F9000AD83BE8389818F5F89838981282F3327F1
:103FA00027FD30958F819885FC01E20FF31F8081FA
:103FB000882309F0A5CF8A81282F332727FD309544
:103FC000432F532F8B819C81AD81BE81BC01CD01DC
:103FD0000E944522DC01CB018B839C83AD83BE8391
:103FE0008B819C81AD81BE81BC01CD0128960FB62D
:103FF000F894DEBF0FBECDBFCF91DF910895DF9360
:10400000CF9300D000D00F92CDB7DEB79B838A83C9
:104010007D836C831982EA81FB818081882309F486
:1040200044C0EC81FD818081882309F43EC032C008
:10403000EA81FB819081EC81FD818081981759F4A0
:104040008A819B8101969B838A838C819D810196C5
:104050009D838C831FC0EA81FB818081882329F4A2
:10406000EC81FD818081882391F4EA81FB8180814C
:10407000882329F0EC81FD818081882341F0EA8149
:10408000FB819081EC81FD818081981719F081E09E
:1040900089830DC0EA81FB818081882349F6EC8108
:1040A000FD818081882321F602C081E08983898196
:1040B0000F900F900F900F900F90CF91DF91089578
:1040C000DF93CF9300D000D0CDB7DEB79C838B8336
:1040D0001A8219820AC089819A8101969A838983FA
:1040E0008B819C8101969C838B83EB81FC818081F9
:1040F000882389F7EB81FC818081882361F789819E
:104100000F900F900F900F90CF91DF910895DF9354
:10411000CF9300D000D0CDB7DEB79B838A836C836A
:1041200019820CC08981282F30E08A819B81FC0193
:10413000E20FF31F108289818F5F898399818C81BF
:10414000981780F30F900F900F900F90CF91DF9101
:1041500008950F931F93DF93CF93CDB7DEB7A89742
:104160000FB6F894DEBF0FBECDBF188A1F868091B0
:10417000F0009091F100A091F200B091F300898BD2
:104180009A8BAB8BBC8B84E1FE017596DF01982F77
:104190001D929A95E9F70E944F060E94D20C80E08A
:1041A00062E00E94551480E690E00E94A21381E034
:1041B00064E00E94551481E790E00E94A21380E021
:1041C00090E0AAE7B4E48B879C87AD87BE876B85B8
:1041D0007C858D859E8520E030E04AE755E40E948D
:1041E0001F02DC01CB018F839887A987BA876F8173
:1041F000788589859A8520E030E040E85FE30E9479
:10420000250488232CF481E090E09E838D833FC0B9
:104210006F81788589859A8520E03FEF4FE757E4E5
:104220000E94C50318164CF56B857C858D859E858F
:1042300020E030E040E251E40E941F02DC01CB01AB
:10424000BC01CD010E944900DC01CB019E838D831E
:104250000FC080E991E09C838B838B819C810197C7
:10426000F1F79C838B838D819E8101979E838D8343
:104270008D819E81009769F714C06F81788589854B
:104280009A850E944900DC01CB019E838D838D813C
:104290009E819A83898389819A810197F1F79A8314
:1042A00089830E94441180E060E00E9455148DE7EC
:1042B00090E00E94A21383E060E00E9455148DE814
:1042C00090E00E94A213BCC081E060E00E945514FF
:1042D0007BC08F85082F10E00E943F0C282FCE0155
:1042E0004596FC01E00FF11F20838F85282F30E0D9
:1042F000CE014596FC01E20FF31F80818F3261F100
:104300008F85282F30E0CE014596FC01E20FF31F88
:1043100080818A3209F18F85282F30E0CE014596C1
:10432000FC01E20FF31F80818D32B1F08F85282FC1
:1043300030E0CE014596FC01E20FF31F80818B3205
:1043400059F08F85282F30E0CE014596FC01E20F11
:10435000F31F80818D3349F48F85282F30E0CE0103
:104360004596FC01E20FF31F10828F85282F30E065
:10437000CE014596FC01E20FF31F8081882309F4EA
:10438000A8CF8F85282F30E0CE014596FC01E20FA3
:10439000F31F80818E3251F48F85282F30E0CE01BB
:1043A0004596FC01E20FF31F108212C08F85282F63
:1043B00030E0CE014596FC01E20FF31F80810E94A0
:1043C00057118F858F5F8F878F85843108F481CF58
:1043D000CE0141969E012B5E3F4FB9010E94FF1F07
:1043E0008823A9F40E94441180E060E00E945514E3
:1043F00081EA90E00E94A21381E06AE50E942A15FA
:1044000083E062E00E94C81484E0888B1DC01F8690
:10441000CE01459664E10E94872081E060E00E9421
:1044200055148FEA90E00E94A21382E060E00E949F
:10443000551484EC90E00E94A21388898F5F888BCA
:104440008889833008F440CF88898330C9F7888908
:104450008F5F888B0E94441180E060E00E945514B9
:1044600083ED90E00E94A21381E060E00E94551469
:1044700081EE90E00E94A21383E060E00E94C814E5
:1044800083E061E00E94C814DBCF629FD001739F7C
:10449000F001829FE00DF11D649FE00DF11D929FE0
:1044A000F00D839FF00D749FF00D659FF00D99271F
:1044B000729FB00DE11DF91F639FB00DE11DF91F43
:1044C000BD01CF0111240895A1E21A2EAA1BBB1B26
:1044D000FD010DC0AA1FBB1FEE1FFF1FA217B307D0
:1044E000E407F50720F0A21BB30BE40BF50B661FE6
:1044F000771F881F991F1A9469F7609570958095AA
:1045000090959B01AC01BD01CF01089597FB092E49
:1045100005260ED057FD04D0D7DF0AD0001C38F492
:1045200050954095309521953F4F4F4F5F4F0895DF
:10453000F6F790958095709561957F4F8F4F9F4FBF
:1045400008952F923F924F925F926F927F928F9237
:104550009F92AF92BF92CF92DF92EF92FF920F9312
:104560001F93CF93DF93CDB7DEB7CA1BDB0B0FB61C
:10457000F894DEBF0FBECDBF09942A8839884888D9
:104580005F846E847D848C849B84AA84B984C8846F
:10459000DF80EE80FD800C811B81AA81B981CE0F66
:1045A000D11D0FB6F894DEBF0FBECDBFED0108954B
:0445B000F894FFCFAD
:1045B40057656C636F6D6520746F20536D61727401
:1045C40000446F6F722053797374656D00456E7487
:1045D40065722050617373776F72643A00456E742C
:1045E4006572204F4E2F4320746F20656E74657280
:1045F4000057656C636F6D6520486F6D6521002001
:1046040020202020202020202020202020202020A6
:104614002020200057726F6E672050617373776F8C
:104624007264005468696565656565656621212164
:104634000043616C6C696E6720393131202121009F
:104644003132330000000000000000003738392FF9
:104654003435362A3132332D2E303D2B04050607EE
:1046640002020202000102030202020224F4000018
:10467400841E0000D0030000F40000003D00000090
:0646840000127A000200A2
:00000001FF
